:020000040000FA
:100000006C28A500FA30A4000000A40B0428A50B5E
:1000100002280800200E210788000800A60BD03017
:10002000012010302102031D192021205D200A200B
:1000300008000930210203192C201F200800A10A02
:1000400008000A302002031931200A302002031967
:100050002A200800A00A08000030A1002A200A2057
:100060008B280030A0000A208B28A60BD03001205E
:100070000030210203193F2044200A2008000930E3
:10008000A10046200A208B28A1030800003020028E
:1000900003194E204C200800A00308000930A000DE
:1000A0000A208B28A60BD0300120200E2107A300A8
:1000B0000030A100A00088000800200E21072302C4
:1000C0000319632008000A208716FA300120003047
:1000D000A100A00087120800850186018701880120
:1000E000890183160313FF3086000030870000303B
:1000F0008800073089000030810090308B0000308C
:100100008C0000308D0007309F0007309C000030CD
:100110009D0083120313061C0E20861C3520061D2D
:0C0120005220861D0E20FA30A6008B280D
:04012C000034003467
:02400E00393F38
:00000001FF
