:020000040000FA
:100000006328A500FA30A4000000A40B0428A50B67
:1000100002280800200E210788000800A60BD03017
:10002000012009302102031919201E2054200A2022
:1000300008000030A10020200A208228A10A080020
:1000400009302002031926202A2008000030A000D1
:100050000A208228A00A0800A60BD0300120003018
:100060002102031936203B200A2008000930A10094
:100070003D200A208228A103080000302002031935
:10008000452043200800A00308000930A0000A20F2
:100090008228A60BD0300120200E2107A3000030BB
:1000A000A100A00088000800200E210723020319E8
:1000B0005A2008000A208716FA3001200030A100DB
:1000C000A000871208008501860187018801890147
:1000D00083160313FF30860000308700003088004D
:1000E000073089000030810090308B0000308C0098
:1000F00000308D0007309F0007309C0000309D00CD
:1001000083120313061C0E20861C2C20061D49207A
:0A011000861D0E20FA30A60082289A
:04011A000034003479
:02400E00393F38
:00000001FF
